:1000000032C056C055C054C0C8C452C051C050C000
:100010004FC04EC04DC04CC04BC04AC049C085C344
:100020009DC39CC399C39AC37EC398C397C396C309
:100030006DC394C393C382C38DC38AC38FC38EC35E
:100040008DC384C31F1C1F1E1F1E1F1F1E1F1E1FAC
:1000500001020408102001010101010100380037EC
:10006000D8016806A70611241FBECFE5D2E0DEBF87
:10007000CDBF10E0A0E6B0E0E2EEFDE002C00590EA
:100080000D92A43BB107D9F720E0A4EBB0E001C08A
:100090001D92A93EB207E1F710E0C3E3D0E003C030
:1000A0002197FE0196D6C033D107D1F757D697C610
:1000B000A7CFCF93DF9300D000D000D0CDB7DEB76D
:1000C00061E0809167001FD561E0809165001BD5DC
:1000D00061E08091630017D587EE90E09093E40093
:1000E0008093E300E091E700F091E8000190F08157
:1000F000E02D09958FEB90E061D148D38EEB90E035
:1001000047D381110FC069E670E081EE90E0BDD564
:100110004DE750E066E870E0CE010196D8D2CE01FE
:10012000019652D368EE73E080E090E0AFD426965B
:100130000FB6F894DEBF0FBECDBFDF91CF9108950B
:100140009C0161157105E9F061307105E1F06230E3
:100150007105D9F063307105D1F064307105C9F0D3
:1001600065307105C1F066307105B9F06730710511
:10017000B1F068307105A9F069307105A1F09AE01D
:1001800013C090E011C099E00FC098E00DC097E057
:100190000BC096E009C095E007C094E005C093E06D
:1001A00003C092E001C091E02130310531F4929515
:1001B000907F809162008F7006C02230310539F443
:1001C00080916200807F982B909362000895233085
:1001D000310531F49295907F809161008F7006C057
:1001E0002430310539F480916100807F982B909301
:1001F000610008952530310531F49295907F80910A
:1002000060008F7006C02630310531F480916000A7
:10021000807F982B909360000895CF93DF9360E0E8
:1002200080916700AAD460E080916300A6D460E06A
:1002300080916500A2D4C7E0D0E060E080916500C5
:100240009CD46091620070E00C2E02C07595679599
:100250000A94E2F761707727809163008ED461E0A1
:10026000809165008AD460E08091630086D42197F4
:1002700020F760E08091650080D4C7E0D0E060E0C6
:10028000809165007AD46091610070E00C2E02C00C
:10029000759567950A94E2F76170772780916300FE
:1002A0006CD461E08091650068D460E08091630067
:1002B00064D4219720F760E0809165005ED4C7E0A8
:1002C000D0E060E08091650058D46091600070E0FB
:1002D0000C2E02C0759567950A94E2F76170772736
:1002E000809163004AD461E08091650046D460E06B
:1002F0008091630042D4219720F760E080916500EF
:100300003CD461E080916700DF91CF9136C40F93B8
:100310001F93CF93DF93E8EBF0E083810481158195
:10032000CAE06C2F28D5D92F682F70E081E090E0CB
:1003300007DF6D2F70E082E090E002DF802F6C2FEE
:100340001AD5D92F682F70E083E090E0F9DE6D2F89
:1003500070E084E090E0F4DE812F6C2F0CD5C92F83
:10036000682F70E085E090E0EBDE6C2F70E086E0B7
:1003700090E0E6DEDF91CF911F910F914ECF91D2A9
:100380002093B8003093B9004093BA005093BB005B
:100390006093BC007093BD00089546D36093B40091
:1003A0007093B5008093B6009093B700E8DFAFCFAD
:1003B00040E050E0BA0188EB90E02EC151C01092AD
:1003C000C200660F6093C3000895E091C200E2315D
:1003D00050F4EF5FE093C200F0E0ED53FF4F608315
:1003E00081E090E0089580E090E00895CF93C62FDB
:1003F0008091C20061E0680F83EC90E0E2D010923F
:10040000C200882329F0CC2329F0DED0811102C05C
:10041000CF9131C080E0CF91089561E0E7CF109295
:10042000C1004093C000660F862F81608093C30097
:1004300061E0640F83EC90E0C4D0882319F0C4D04D
:10044000811101C018C080E00895E091C100EF5F04
:10045000E093C100F0E0ED53FF4F808190E00895FC
:10046000C09AC29ABA9AB89A8FEF8FB98AE28DB9B8
:1004700080EF8EB908958091D50008958EB98BE2F2
:100480009BE19A95F1F700C08DB9B29BFECF96E142
:100490009A95F1F78DB9769BF3CF8BE18A95F1F7B9
:1004A00000C08FB19FEF9FB9B89A0895C29AC29BBE
:1004B000FECF8BE18A95F1F700C0C09886E18A955E
:1004C000F1F7C298C09A779905C083E08093D50070
:1004D00080E0089581E00895AF92BF92CF92DF92BD
:1004E000EF92FF920F931F93CF93DF937C01062F20
:1004F0009091D50091609093D500F701808180FDA7
:1005000003C092609093D500D1DF882309F44EC0D8
:10051000102FE701BB24BA94AA24A3948091D5009C
:1005200083709E012F5F3F4F6901882361F1C2985C
:1005300088818FB980EFA2DFB8988EEF9FDF90910E
:10054000D50080FF0BC0892F817090FF05C081E02E
:100550008093D50080E02AC092E00EC0892F85707C
:10056000843069F4F701808181608083A092D50096
:100570009DDF811115C09AE09093D50017C09E7F32
:100580009093D5000BC0B89880EF78DF8883113046
:1005900011F4BFB801C01FB88EEF70DFE60102C0D2
:1005A000102FE701115009F0B9CF81E0DF91CF9111
:1005B0001F910F91FF90EF90DF90CF90BF90AF9081
:1005C00008951092D50088CFC098C29AB29BFECFF2
:1005D00086E18A95F1F7C09A8BE18A95F1F700C020
:1005E0009EB1892F807295FD04C094E09093D50050
:1005F000089581E00895FC01908180ED890F8A3093
:1006000008F080E0218120536AE0ACD3820F089586
:100610001CDF97FD80E00895CF92DF92EF92FF926A
:10062000CF93DF93EC01CB01BA01605873448D4640
:1006300098432CE3C22ED12CE12CF12CA70196017A
:10064000A6D36D83CA01B901A7019601A0D36C831B
:10065000CA01B90128E130E040E050E098D36B8353
:10066000188263E97EEF8881482F437091E009F09A
:1006700090E0492F50E0FA01E359FE4F2E173F0753
:1006800040F0FB01E41BF50B2E0F3F1F8F5F8883AB
:10069000EACF81E089838981E82FF0E0ED5BFF4FAD
:1006A000E491992319F0823009F4EF5FF0E02E17FE
:1006B0003F0720F02E1B3F0B8F5FECCF2F5F2A836D
:1006C000DF91CF91FF90EF90DF90CF900895CF9280
:1006D000DF92EF92FF920F931F93CF93DF93EC0182
:1006E0006B017A01CB01099686DF8883D601EC91F4
:1006F0000E2FEE0F110B220B330BF801E154F10911
:10070000E331F10558F5E15FFF4F0994F60181816E
:10071000813639F082818E3611F087E01EC086E086
:100720001CC081E01AC082E018C0D60112968C91DC
:10073000823711F088E011C084E00FC0F601828199
:10074000823711F085E009C083E007C089E005C069
:100750008AE003C08BE001C08CE08983C601049667
:100760004ADF8A83C70147DF8B83C701039643DFD4
:100770008C83C70106963FDF8D83DF91CF911F9158
:100780000F91FF90EF90DF90CF90089581E0089552
:1007900068E68FEB90E013DE6091D6008FEB90E07F
:1007A00014DE8FEB90E039DE41E068E68FEB90E0FD
:1007B00036DE8FEB90E02CDF90E0880F892F881FCA
:1007C000990B21E082270895EF92FF920F931F93D8
:1007D000CF938C0168E68FEB90E0F1DD86EDE82E9B
:1007E00080E0F82EF70160818FEB90E0EEDDF801FC
:1007F0002581CAE0822F6C2FBED266E0B3D2682F6B
:10080000620F8FEB90E0E1DDF8012481822F6C2FE5
:10081000B2D266E0A7D2682F620F8FEB90E0D5DDF1
:10082000F8012381822F6C2FA6D266E09BD2682F1D
:10083000620F8FEB90E0C9DD60E08FEB90E0C5DDEB
:10084000F8012281822F6C2F96D266E08BD2682F1E
:10085000620F8FEB90E0B9DDF8012181822F6C2FC0
:100860008AD266E07FD2682F620F8FEB90E0ADDD19
:10087000F8012081822F6C2F7ED266E073D2682F20
:10088000620F8FEB90E0A1DDF70160818FEB90E0CC
:100890009CDD8FEB90E0CF911F910F91FF90EF9037
:1008A000BCCD1F93CF93DF93CDB7DEB72A970FB69A
:1008B000F894DEBF0FBECDBF68E68FEB90E07FDD22
:1008C0006091D6008FEB90E080DD8FEB90E0A5DDAE
:1008D00047E068E68FEB90E0A2DD8FEB90E098DEDA
:1008E000782F7F77872F82958F706AEF3BD2780FB2
:1008F0008FEB90E07A878CDE982F82958F706AEF6D
:1009000031D2182F190F8FEB90E082DE582F82958D
:100910008F706AEF27D2580F8FEB90E0598778DEFF
:100920008FEB90E075DE482F82958F706AEF1AD2B8
:10093000480F8FEB90E048876BDE382F82958F70E1
:100940006AEF10D2380F8FEB90E03F8361DE282FE3
:1009500082958F706AEF06D2280F3F8148855985AE
:10096000612F7A8580E090E02A960FB6F894DEBF7A
:100970000FBECDBFDF91CF911F91089583B7887FC0
:1009800083BF8AB58C7F81608ABD83B7877F83BF31
:1009900083B7887F836083BF089578941F920F92F6
:1009A0000FB60F9211242F933F938F939F93AF9382
:1009B000BF938091D9009091DA00A091DB00B091B3
:1009C000DC003091D8002CE7230F2D3728F02FEFD3
:1009D000230F0196A11DB11D2093D8008093D9004B
:1009E0009093DA00A093DB00B093DC008091DD00EF
:1009F0009091DE00A091DF00B091E0000196A11D72
:100A0000B11D8093DD009093DE00A093DF00B093D2
:100A1000E000BF91AF919F918F913F912F910F90E7
:100A20000FBE0F901F9018952FB7F8946091D900C2
:100A30007091DA008091DB009091DC002FBF089567
:100A40003FB7F8948091DD009091DE00A091DF0027
:100A5000B091E0002FB508B602FE05C02F3F19F097
:100A60000196A11DB11D3FBFBA2FA92F982F88272E
:100A7000820F911DA11DB11DBC01CD0142E0660F89
:100A8000771F881F991F4A95D1F70895CF92DF925B
:100A9000EF92FF92CF93DF936B017C01D1DFEB01EB
:100AA000C114D104E104F10471F0CADF6C1B7D0BA9
:100AB000683E7340A8F381E0C81AD108E108F10844
:100AC000C851DC4FEDCFDF91CF91FF90EF90DF90D9
:100AD000CF900895789480B7806880BF80B7806495
:100AE00080BF8CB580648CBD8FEF8DBD80B7807F5B
:100AF000876080BF89B7846089BF40DF86B1876027
:100B000086B9379A0895CF93DF9390E0FC01E05BBC
:100B1000FF4F2491FC01EA5AFF4F8491882351F141
:100B200090E0FC01E25AFF4FE491CE2FD0E0FC01AF
:100B3000E45AFF4F8491611107C08FB7F8949881F0
:100B4000E22FE095E92314C0623071F4A82FB0E0E1
:100B50009FB7F8943881822F809583238883EC9106
:100B6000E22BEC939FBF06C08FB7F894E881E22B8D
:100B7000E8838FBFDF91CF910895282F30E0F901EE
:100B8000E05BFF4F9491F901EA5AFF4FE491EE23A5
:100B900019F1811103C08AB58F7304C0813021F42B
:100BA0008AB58F7C8ABD05C0843019F48CB58F7CE2
:100BB0008CBDF0E0E45AFF4FA491B0E08FB7611113
:100BC00006C0F8942C91E92FE095E22303C0F89435
:100BD000EC91E92BEC938FBF08950F931F93CF9364
:100BE000DF938C01EB016991662349F0D801ED9107
:100BF000FC910190F081E02DC8010995F4CFDF91BF
:100C0000CF911F910F910895EF92FF920F931F9331
:100C1000CF93DF937C01EB018B01040F151FC017ED
:100C2000D10751F06991D701ED91FC910190F081CC
:100C3000E02DC7010995F3CFDF91CF911F910F915F
:100C4000FF90EF900895DC01ED91FC910190F0810F
:100C5000E02D642F0994DC01ED91FC910280F38179
:100C6000E02D0994CF93DF93EC014DE050E060E07C
:100C700070E0E9DF4AE050E060E070E0CE01E3DFE1
:100C800082E090E0DF91CF910895CF93DF93EC0164
:100C9000E2DFCE01DF91CF91E5CF0895089580E0A6
:100CA00090E008958FEF9FEF08958FEF9FEF0895E5
:100CB0000895DC0112968D919C911397DC01ED91C2
:100CC000FC910280F381E02D099581E090E0089588
:100CD000A5EEB0E086E990E011969C938E93E1EE4C
:100CE000F0E08EE990E091838083B383A28308953E
:100CF000BA9AC29A0895862F880F8E7162956F7086
:100D0000606122E095E05EE1F89407C00000000019
:100D100000000000000000000000879510F0C2985D
:100D200002C0C29A0000579510F40000000047E28C
:100D30004A95F1F7000000009A9541F700002A95C6
:100D400021F095E0862F5FE1E8CF7894089580EB5D
:100D500090E09093E8008093E7000895BBDEA9D966
:100D60001CDBFECF002480FD060E660F11F0869579
:100D7000D1F7802D0895991B79E004C0991F96172B
:100D800008F0961B881F7A95C9F780950895A1E20F
:100D90001A2EAA1BBB1BFD010DC0AA1FBB1FEE1FF5
:100DA000FF1FA217B307E407F50720F0A21BB30B40
:100DB000E40BF50B661F771F881F991F1A9469F7BC
:100DC00060957095809590959B01AC01BD01CF0118
:100DD0000895EE0FFF1F0590F491E02D0994F8940B
:020DE000FFCF43
:100DE200FFFFFF03000400010052544320697320F7
:100DF2004E4F542072756E6E696E67210032303A22
:100E020032313A3437004D61792020382032303186
:100E12003700000000004D064E0600000000590693
:100E2200ED0504064F06550652065806000000005E
:040E320078067B06BD
:00000001FF
